{"abi":[{"inputs":[],"stateMutability":"nonpayable","type":"constructor"},{"inputs":[],"name":"ApprovalCallerNotOwnerNorApproved","type":"error"},{"inputs":[],"name":"ApprovalQueryForNonexistentToken","type":"error"},{"inputs":[],"name":"BalanceQueryForZeroAddress","type":"error"},{"inputs":[],"name":"InsufficientPayment","type":"error"},{"inputs":[],"name":"MaxPerWalletReached","type":"error"},{"inputs":[],"name":"MaxSupplyReached","type":"error"},{"inputs":[],"name":"MintERC2309QuantityExceedsLimit","type":"error"},{"inputs":[],"name":"MintToZeroAddress","type":"error"},{"inputs":[],"name":"MintZeroQuantity","type":"error"},{"inputs":[],"name":"NoDicFound","type":"error"},{"inputs":[],"name":"OwnerQueryForNonexistentToken","type":"error"},{"inputs":[],"name":"OwnershipNotInitializedForExtraData","type":"error"},{"inputs":[],"name":"SaleIsPaused","type":"error"},{"inputs":[],"name":"TransferCallerNotOwnerNorApproved","type":"error"},{"inputs":[],"name":"TransferFromIncorrectOwner","type":"error"},{"inputs":[],"name":"TransferToNonERC721ReceiverImplementer","type":"error"},{"inputs":[],"name":"TransferToZeroAddress","type":"error"},{"inputs":[],"name":"URIQueryForNonexistentToken","type":"error"},{"anonymous":false,"inputs":[{"indexed":true,"internalType":"address","name":"owner","type":"address"},{"indexed":true,"internalType":"address","name":"approved","type":"address"},{"indexed":true,"internalType":"uint256","name":"tokenId","type":"uint256"}],"name":"Approval","type":"event"},{"anonymous":false,"inputs":[{"indexed":true,"internalType":"address","name":"owner","type":"address"},{"indexed":true,"internalType":"address","name":"operator","type":"address"},{"indexed":false,"internalType":"bool","name":"approved","type":"bool"}],"name":"ApprovalForAll","type":"event"},{"anonymous":false,"inputs":[{"indexed":true,"internalType":"uint256","name":"fromTokenId","type":"uint256"},{"indexed":false,"internalType":"uint256","name":"toTokenId","type":"uint256"},{"indexed":true,"internalType":"address","name":"from","type":"address"},{"indexed":true,"internalType":"address","name":"to","type":"address"}],"name":"ConsecutiveTransfer","type":"event"},{"anonymous":false,"inputs":[{"indexed":true,"internalType":"address","name":"previousOwner","type":"address"},{"indexed":true,"internalType":"address","name":"newOwner","type":"address"}],"name":"OwnershipTransferred","type":"event"},{"anonymous":false,"inputs":[{"indexed":true,"internalType":"address","name":"from","type":"address"},{"indexed":true,"internalType":"address","name":"to","type":"address"},{"indexed":true,"internalType":"uint256","name":"tokenId","type":"uint256"}],"name":"Transfer","type":"event"},{"inputs":[],"name":"COST_PER_MINT","outputs":[{"internalType":"uint256","name":"","type":"uint256"}],"stateMutability":"view","type":"function"},{"inputs":[],"name":"MAX_PER_WALLET","outputs":[{"internalType":"uint8","name":"","type":"uint8"}],"stateMutability":"view","type":"function"},{"inputs":[],"name":"MAX_SUPPLY","outputs":[{"internalType":"uint256","name":"","type":"uint256"}],"stateMutability":"view","type":"function"},{"inputs":[{"internalType":"address","name":"to","type":"address"},{"internalType":"uint256","name":"tokenId","type":"uint256"}],"name":"approve","outputs":[],"stateMutability":"nonpayable","type":"function"},{"inputs":[{"internalType":"address","name":"owner","type":"address"}],"name":"balanceOf","outputs":[{"internalType":"uint256","name":"","type":"uint256"}],"stateMutability":"view","type":"function"},{"inputs":[],"name":"flipSaleState","outputs":[],"stateMutability":"nonpayable","type":"function"},{"inputs":[{"internalType":"uint256","name":"tokenId","type":"uint256"}],"name":"getApproved","outputs":[{"internalType":"address","name":"","type":"address"}],"stateMutability":"view","type":"function"},{"inputs":[{"internalType":"uint256","name":"tokenId","type":"uint256"}],"name":"getSeed","outputs":[{"internalType":"uint256","name":"","type":"uint256"}],"stateMutability":"view","type":"function"},{"inputs":[{"internalType":"address","name":"owner","type":"address"},{"internalType":"address","name":"operator","type":"address"}],"name":"isApprovedForAll","outputs":[{"internalType":"bool","name":"","type":"bool"}],"stateMutability":"view","type":"function"},{"inputs":[{"internalType":"uint32","name":"qty","type":"uint32"}],"name":"mint","outputs":[],"stateMutability":"payable","type":"function"},{"inputs":[],"name":"name","outputs":[{"internalType":"string","name":"","type":"string"}],"stateMutability":"view","type":"function"},{"inputs":[],"name":"owner","outputs":[{"internalType":"address","name":"","type":"address"}],"stateMutability":"view","type":"function"},{"inputs":[{"internalType":"uint256","name":"tokenId","type":"uint256"}],"name":"ownerOf","outputs":[{"internalType":"address","name":"","type":"address"}],"stateMutability":"view","type":"function"},{"inputs":[],"name":"renounceOwnership","outputs":[],"stateMutability":"nonpayable","type":"function"},{"inputs":[{"internalType":"address","name":"from","type":"address"},{"internalType":"address","name":"to","type":"address"},{"internalType":"uint256","name":"tokenId","type":"uint256"}],"name":"safeTransferFrom","outputs":[],"stateMutability":"nonpayable","type":"function"},{"inputs":[{"internalType":"address","name":"from","type":"address"},{"internalType":"address","name":"to","type":"address"},{"internalType":"uint256","name":"tokenId","type":"uint256"},{"internalType":"bytes","name":"_data","type":"bytes"}],"name":"safeTransferFrom","outputs":[],"stateMutability":"nonpayable","type":"function"},{"inputs":[],"name":"saleIsActive","outputs":[{"internalType":"bool","name":"","type":"bool"}],"stateMutability":"view","type":"function"},{"inputs":[{"internalType":"address","name":"operator","type":"address"},{"internalType":"bool","name":"approved","type":"bool"}],"name":"setApprovalForAll","outputs":[],"stateMutability":"nonpayable","type":"function"},{"inputs":[{"internalType":"uint8","name":"seed","type":"uint8"}],"name":"setColor","outputs":[{"components":[{"internalType":"string","name":"value","type":"string"},{"internalType":"string","name":"name","type":"string"}],"internalType":"struct AsciiPricks.Color","name":"","type":"tuple"}],"stateMutability":"view","type":"function"},{"inputs":[{"internalType":"bytes4","name":"interfaceId","type":"bytes4"}],"name":"supportsInterface","outputs":[{"internalType":"bool","name":"","type":"bool"}],"stateMutability":"view","type":"function"},{"inputs":[],"name":"symbol","outputs":[{"internalType":"string","name":"","type":"string"}],"stateMutability":"view","type":"function"},{"inputs":[{"internalType":"uint256","name":"tokenId","type":"uint256"}],"name":"tokenURI","outputs":[{"internalType":"string","name":"","type":"string"}],"stateMutability":"view","type":"function"},{"inputs":[],"name":"totalSupply","outputs":[{"internalType":"uint256","name":"","type":"uint256"}],"stateMutability":"view","type":"function"},{"inputs":[{"internalType":"address","name":"from","type":"address"},{"internalType":"address","name":"to","type":"address"},{"internalType":"uint256","name":"tokenId","type":"uint256"}],"name":"transferFrom","outputs":[],"stateMutability":"nonpayable","type":"function"},{"inputs":[{"internalType":"address","name":"newOwner","type":"address"}],"name":"transferOwnership","outputs":[],"stateMutability":"nonpayable","type":"function"},{"inputs":[],"name":"withdraw","outputs":[],"stateMutability":"payable","type":"function"}],"bytecode":{"object":"0x60806040523462000c50576200001462000c55565b600c908181526020916b415343494920507269636b7360a01b838301526200003b62000c55565b60059384825264505249434b60d81b8183015283519260018060401b0394858511620009cc576002948062000071875462000c75565b92601f9384811162000c1f575b50859084831160011462000bb55760009262000ba9575b50508160011b916000199060031b1c19161785555b8351868111620009cc5780600395620000c4875462000c75565b84811162000b6d575b50859084831160011462000b045760009262000af8575b50508160011b9160001990871b1c19161784555b600080805560088054336001600160a01b03198216811790925590916001600160a01b03909116907f8be0079c531659141344cd1fd0a4f28419497f9722a3daafe3b4186f6b6457e09080a3600a95611f448755600b610a0061ffff19825416178155604051976102a089019089821084831117620009cc578691604052896200018162000c55565b936200018c62000c55565b94600795868152662330386637666560c81b868201528152620001ae62000c55565b84815269476c6f777920426c756560b01b86820152858201528252620001d362000c55565b620001dd62000c55565b868152662330396662643360c81b868201528152620001fb62000c55565b8281526a23b637bbbc9023b932b2b760a91b8682015285820152848301526200022362000c55565b6200022d62000c55565b8681526611b3329a99b13160c91b8682015281526200024b62000c55565b84815269476c6f77792050696e6b60b01b868201528582015260408301526200027362000c55565b6200027d62000c55565b868152660236635643330360cc1b8682015281526200029b62000c55565b8981526b476c6f77792059656c6c6f7760a01b86820152858201526060830152620002c562000c55565b620002cf62000c55565b868152662366666163666360c81b868201528152620002ed62000c55565b600e81526d427562626c6567756d2050696e6b60901b868201528582015260808301526200031a62000c55565b6200032462000c55565b8681526611b3189a1c333160c91b8682015281526200034262000c55565b60098152684e656f6e2050696e6b60b81b868201528582015260a08301526200036a62000c55565b6200037462000c55565b868152662337313232666160c81b8682015281526200039262000c55565b8281526a4e656f6e20507572706c6560a81b868201528582015260c0830152620003bb62000c55565b620003c562000c55565b86815266119a9b18309c1b60c91b868201528152620003e362000c55565b8281526a4461726b20507572706c6560a81b868201528582015260e08301526200040c62000c55565b6200041662000c55565b868152662366666533663160c81b8682015281526200043462000c55565b848152694c696768742050696e6b60b01b86820152858201526101008301526200045d62000c55565b6200046762000c55565b868152660236665316338360cc1b8682015281526200048562000c55565b84815269526574726f2050696e6b60b01b8682015285820152610120830152620004ae62000c55565b620004b862000c55565b868152662366663566303160c81b868201528152620004d662000c55565b8981526b526574726f204f72616e676560a01b86820152858201526101408301526200050162000c55565b6200050b62000c55565b868152660236365303030360cc1b8682015281526200052962000c55565b600981526814995d1c9bc814995960ba1b86820152858201526101608301526200055262000c55565b6200055c62000c55565b90868252660236663663334360cc1b91828782015281526200057d62000c55565b8a81526b426f6b65682059656c6c6f7760a01b8782015286820152610180840152620005a862000c55565b90620005b362000c55565b91878352660233766666630360cc1b9283888201528152620005d462000c55565b8481526a2137b5b2b41023b932b2b760a91b88820152878201526101a08501526102006200060162000c55565b946200060c62000c55565b958987526611b3311999b23160c91b96878a82015281526200062d62000c55565b88815269426f6b65682050696e6b60b01b8a820152898201526101c08201528b6b506c61696e2059656c6c6f7760a01b6200066762000c55565b996200067262000c55565b9a8c8c52662330333130656160c81b9b8c8382015281526200069362000c55565b8b815269426f6b656820426c756560b01b83820152828201526101e0850152620006bc62000c55565b95620006c762000c55565b908d8252828201528652620006db62000c55565b9283528201528d8401520152620006f162000c55565b90620006fc62000c55565b908782528b82015281526200071062000c55565b8281526a283630b4b71023b932b2b760a91b8b8201528a8201526102208d01526200073a62000c55565b916200074562000c55565b908682528a82015282526200075962000c55565b9081526a4272696768742050696e6b60a81b89820152888201526102408b01526200078362000c55565b916200078e62000c55565b90848252888201528252620007a262000c55565b90815269506c61696e20426c756560b01b8782015286820152610260890152620007cb62000c55565b90620007d662000c55565b908152662366376566386160c81b868201528152620007f462000c55565b600681526523b7b63232b760d11b868201528582015261028088015282549660159788855580891062000a89575b50949260005283600020926000955b888710620008495760405161296e908162000d1e8239f35b80518051805190858211620009cc5781908d8a620008688b5462000c75565b8a811162000a57575b5050508990888311600114620009ee57600092620009e2575b50508160011b9160001990861b1c19161786555b60018781880192015192835192868411620009cc578b938a938f620008c4845462000c75565b8b81116200098f575b505084968a83116001146200091657829160019883926000946200090a575b50501b9160001990891b1c19161790555b0195019601959362000831565b015192503880620008ec565b601f9291921982169784600052866000209160005b8a81106200096657508360019a106200094d575b505050811b019055620008fd565b0151600019838b1b60f8161c191690553880806200093f565b94829699508194979a938993829a93015181550195019301928f9794919895928e97946200092b565b620009ba918560005287600020908d808701821c8301938a8810620009c2575b01901c019062000cb2565b8f38620008cd565b93508293620009af565b634e487b7160e01b600052604160045260246000fd5b0151905038806200088a565b60008a81528b812093508490601f198216905b8d82821062000a3d5750501062000a24575b505050600190811b0186556200089e565b015160001983871b60f8161c1916905538808062000a13565b848601518755600190960195948501948793500162000a01565b62000a80928c6000528b8360002092818801831c8401948810620009c25701901c019062000cb2565b8d8a3862000871565b6001600160ff1b038116810362000ae25784600052856000209088602a600192831b840193015b83811062000ac15750505062000822565b62000acc8162000ccb565b62000ad983820162000ccb565b01899062000ab0565b634e487b7160e01b600052601160045260246000fd5b015190503880620000e4565b60008881528781209350601f198516905b8882821062000b5657505090846001959493921062000b3d575b505050811b018455620000f8565b015160001983891b60f8161c1916905538808062000b2f565b600185968293968601518155019501930162000b15565b62000b98908860005287600020868d818701901c8201928a871062000b9f575b018d1c019062000cb2565b38620000cd565b9250819262000b8d565b01519050388062000095565b60008981528781209350601f198516905b8882821062000c0857505090846001959493921062000bee575b505050811b018555620000aa565b015160001960f88460031b161c1916905538808062000be0565b600185968293968601518155019501930162000bc6565b62000c49908960005287600020868d818701901c8201928a871062000b9f57018d1c019062000cb2565b386200007e565b600080fd5b60408051919082016001600160401b03811183821017620009cc57604052565b90600182811c9216801562000ca7575b602083101462000c9157565b634e487b7160e01b600052602260045260246000fd5b91607f169162000c85565b81811062000cbe575050565b6000815560010162000cb2565b62000cd7815462000c75565b908162000ce2575050565b81601f6000931160011462000cf5575055565b8183526020832062000d1391601f0160051c81019060010162000cb2565b816020812091555556fe60806040526004361015610013575b600080fd5b60003560e01c806301ffc9a71461021b57806306fdde0314610212578063081812fc14610209578063095ea7b3146102005780630f2cdd6c146101f757806318160ddd146101ee57806323b872dd146101e557806323b9f3bb146101dc57806332cb6b0c146101d357806334918dfd146101ca5780633ccfd60b146101c157806342842e0e146101b85780636352211e146101af57806370a08231146101a6578063715018a61461019d5780638da5cb5b1461019457806395d89b411461018b578063a22cb46514610182578063a71bbebe14610179578063b88d4fde14610170578063c87b56dd14610167578063e017cd1d1461015e578063e0d4ea3714610155578063e985e9c51461014c578063eb8d2444146101435763f2fde38b1461013b57600080fd5b61000e6112e4565b5061000e6112c0565b5061000e611262565b5061000e611215565b5061000e6111f8565b5061000e610c81565b5061000e610bf8565b5061000e61098e565b5061000e6108ff565b5061000e61083b565b5061000e610811565b5061000e6107b2565b5061000e610756565b5061000e610726565b5061000e6106df565b5061000e6106a5565b5061000e610673565b5061000e610654565b5061000e6105f4565b5061000e6105da565b5061000e610581565b5061000e61055c565b5061000e61048f565b5061000e61040e565b5061000e610301565b5061000e610236565b6001600160e01b031981160361000e57565b503461000e57602036600319011261000e57602060043561025681610224565b63ffffffff60e01b166301ffc9a760e01b8114908115610294575b8115610283575b506040519015158152f35b635b5e139f60e01b14905038610278565b6380ac58cd60e01b81149150610271565b60005b8381106102b85750506000910152565b81810151838201526020016102a8565b906020916102e1815180928185528580860191016102a5565b601f01601f1916010190565b9060206102fe9281815201906102c8565b90565b503461000e5760008060031936011261040b5760405190806002549060019180831c92808216928315610401575b60209283861085146103ed5785885260208801949081156103cc5750600114610373575b61036f8761036381890382610b91565b604051918291826102ed565b0390f35b600260005294509192917f405787fa12a823e0f2b7631cc41b3ba8828b3321ca811111fa75cd3aa3bb5ace5b8386106103bb57505050910190506103638261036f3880610353565b80548587015294820194810161039f565b60ff191685525050505090151560051b0190506103638261036f3880610353565b634e487b7160e01b82526022600452602482fd5b93607f169361032f565b80fd5b503461000e57602036600319011261000e5760043561042c816123ed565b15610451576000526006602052602060018060a01b0360406000205416604051908152f35b6040516333d1c03960e21b8152600490fd5b600435906001600160a01b038216820361000e57565b602435906001600160a01b038216820361000e57565b503461000e57604036600319011261000e576104a9610463565b602435906001600160a01b03806104bf8461237f565b1691823303610529575b610500816104e1866000526006602052604060002090565b80546001600160a01b0319166001600160a01b03909216919091179055565b16907f8c5be1e5ebec7d5bd14f71427d1e84f3dd0314c0f7b2291e5b200ac8c7c3b925600080a4005b600083815260076020908152604080832033845290915290205460ff166104c9576040516367d9dca160e11b8152600490fd5b503461000e57600036600319011261000e57602060ff600b5460081c16604051908152f35b503461000e57600036600319011261000e5760206000546001549003604051908152f35b606090600319011261000e576001600160a01b0390600435828116810361000e5791602435908116810361000e579060443590565b503461000e576105f26105ec366105a5565b91612416565b005b503461000e57602036600319011261000e5760043560ff8116810361000e5761061f61036f916122c3565b604051918291602083526020610640825160408387015260608601906102c8565b910151838203601f190160408501526102c8565b503461000e57600036600319011261000e576020600a54604051908152f35b503461000e57600036600319011261000e5761068d6113ae565b600b5460ff80821615169060ff191617600b55600080f35b5060008060031936011261040b576106bb6113ae565b8080808060018060a01b036008541647905af16106d66114a4565b501561040b5780f35b503461000e576105f26106f1366105a5565b9060405192602084018481106001600160401b03821117610719575b604052600084526125e8565b610721610b00565b61070d565b503461000e57602036600319011261000e5760206001600160a01b0361074d60043561237f565b16604051908152f35b503461000e57602036600319011261000e576001600160a01b03610778610463565b1680156107a057600052600560205260206001600160401b0360406000205416604051908152f35b6040516323d3ad8160e21b8152600490fd5b503461000e5760008060031936011261040b576107cd6113ae565b600880546001600160a01b0319811690915581906001600160a01b03167f8be0079c531659141344cd1fd0a4f28419497f9722a3daafe3b4186f6b6457e08280a380f35b503461000e57600036600319011261000e576008546040516001600160a01b039091168152602090f35b503461000e5760008060031936011261040b5760405190806003549060019180831c928082169283156108f5575b60209283861085146103ed5785885260208801949081156103cc575060011461089c5761036f8761036381890382610b91565b600360005294509192917fc2575a0e9e593c00f959f8c92f12db2869c3395a3b0502d05e2516446f71f85b5b8386106108e457505050910190506103638261036f3880610353565b8054858701529482019481016108c8565b93607f1693610869565b503461000e57604036600319011261000e57610919610463565b6024359081151580920361000e573360009081526007602090815260408083206001600160a01b0385168452909152902060ff1981541660ff841617905560405191825260018060a01b0316907f17307eab39ab6107e8899845ad3d59bd9653f200f220920489ca2b5937696c3160203392a3005b5060208060031936011261000e5760043563ffffffff811680910361000e57600b549160ff831615610aee576000926109c8838554611441565b600a5410610adc5733600090815260056020526040908190205460ff916109fa9186911c6001600160401b0316611441565b9160081c1610610aca57610a0d8261144e565b3410610ab857825b828110610a2a5783610a27843361271b565b80f35b610ab3908454610aad610a9d83610a97610a91610a478387611441565b604051428b82019081523360601b6bffffffffffffffffffffffff191660208201526034810192909252610a8881605484015b03601f198101835282610b91565b519020606c1b90565b60d81c90565b93611441565b6000526009602052604060002090565b55611475565b610a15565b60405163cd1c886760e01b8152600490fd5b60405163d330f98560e01b8152600490fd5b60405163d05cb60960e01b8152600490fd5b604051631c7324b560e21b8152600490fd5b50634e487b7160e01b600052604160045260246000fd5b604081019081106001600160401b03821117610b3257604052565b610b3a610b00565b604052565b606081019081106001600160401b03821117610b3257604052565b602081019081106001600160401b03821117610b3257604052565b6101a081019081106001600160401b03821117610b3257604052565b90601f801991011681019081106001600160401b03821117610b3257604052565b60405190610bbf82610b3f565b565b60405190610bbf82610b17565b6020906001600160401b038111610beb575b601f01601f19160190565b610bf3610b00565b610be0565b503461000e57608036600319011261000e57610c12610463565b610c1a610479565b606435916001600160401b03831161000e573660238401121561000e57826004013591610c4683610bce565b92610c546040519485610b91565b808452366024828701011161000e5760208160009260246105f298018388013785010152604435916125e8565b503461000e5760208060031936011261000e57600435610cab816000526009602052604060002090565b5490610cbb60ff83851c1661174b565b91838160181c60ff16610ccd906118bb565b928260091c607f16610cde906119c3565b94610ceb60ff8516611b74565b93610cf590612168565b90805196865196815191875199855160409b8c9586519c8d948c8601610d8b906057907f3c7376672077696474683d2233323022206865696768743d223332302220766981527f6577426f783d2230203020333230203332302220786d6c6e733d22687474703a60208201527f2f2f7777772e77332e6f72672f323030302f737667223e00000000000000000060408201520190565b7f3c726563742077696474683d223130302522206865696768743d223130302522815270103334b6361e91119821981c982091179f60791b60208201526031017f3c7465787420783d223530252220793d223530252220666f6e742d66616d696c81527f793d22526f626f746f2220666f6e742d7765696768743d223730302220666f6e60208201527f742d73697a653d2233302220746578742d616e63686f723d226d6964646c6522604082015274103632ba3a32b916b9b830b1b4b7339e9118911f0560591b6060820152607501610e64916114d4565b610e6d916114d4565b610e76916114d4565b610e7f916114d4565b661e17ba32bc3a1f60c91b8152600701610e98916114d4565b651e17b9bb339f60d11b81526006010398601f19998a81018252610ebc9082610b91565b610ec59061284f565b90610ece6114e7565b96610ed89061153a565b988885818082850151015193015193015101519289808080808a8a01510151980151988a01510151980151980151988d519b8c9b8c01610f2090600190607b60f81b81520190565b6f226e616d65223a22505249434b53202360801b8152601001610f42916114d4565b61088b60f21b81526002016e113232b9b1b934b83a34b7b7111d1160891b8152600f01610f6e916114d4565b61088b60f21b8152600201691134b6b0b3b2911d101160b11b8152600a017f646174613a696d6167652f7376672b786d6c3b6261736536342c0000000000008152601a01610fbb916114d4565b61088b60f21b81526002017f2261747472696275746573223a205b7b2274726169745f74797065223a20225481526e34b8111610113b30b63ab2911d101160891b6020820152602f0161100d916114d4565b600160fd1b8152600101611020916114d4565b62089f4b60ea1b81526003017f7b2274726169745f74797065223a2022486f77206465657020697320796f7572815271103637bb32911610113b30b63ab2911d101160711b6020820152603201611076916114d4565b62089f4b60ea1b81526003017f7b2274726169745f74797065223a2022467572222c202276616c7565223a202281526020016110b1916114d4565b600160fd1b81526001016110c4916114d4565b62089f4b60ea1b81526003017f7b2274726169745f74797065223a202246616d696c79204a65776c73222c20228152683b30b63ab2911d101160b91b6020820152602901611111916114d4565b600160fd1b8152600101611124916114d4565b62089f4b60ea1b81526003017f7b2274726169745f74797065223a20225374796c65222c202276616c7565223a815261101160f11b602082015260220161116a916114d4565b62089f4b60ea1b8152600301605d60f81b8152600101607d60f81b815260010103828101825261119a9082610b91565b6111a39061284f565b82517f646174613a6170706c69636174696f6e2f6a736f6e3b6261736536342c00000094810194855293849190601d016111dc916114d4565b0390810183526111ec9083610b91565b5161036f8192826102ed565b503461000e57600036600319011261000e57602060405160008152f35b503461000e57602036600319011261000e57600435611233816123ed565b156112505760005260096020526020604060002054604051908152f35b604051635747e7fd60e11b8152600490fd5b503461000e57604036600319011261000e57602060ff6112b4611283610463565b61128b610479565b6001600160a01b0391821660009081526007865260408082209290931681526020919091522090565b54166040519015158152f35b503461000e57600036600319011261000e57602060ff600b54166040519015158152f35b503461000e57602036600319011261000e576112fe610463565b6113066113ae565b6001600160a01b0390811690811561135a57600854826bffffffffffffffffffffffff60a01b821617600855167f8be0079c531659141344cd1fd0a4f28419497f9722a3daafe3b4186f6b6457e0600080a3005b60405162461bcd60e51b815260206004820152602660248201527f4f776e61626c653a206e6577206f776e657220697320746865207a65726f206160448201526564647265737360d01b6064820152608490fd5b6008546001600160a01b031633036113c257565b606460405162461bcd60e51b815260206004820152602060248201527f4f776e61626c653a2063616c6c6572206973206e6f7420746865206f776e65726044820152fd5b50634e487b7160e01b600052601160045260246000fd5b906002820180921161142b57565b610bbf611406565b906020820180921161142b57565b9190820180921161142b57565b90600160009215171561142b57565b600281901b91906001600160fe1b0381160361142b57565b6001906000198114611485570190565b61148d611406565b0190565b6040519061149e82610b5a565b60008252565b3d156114cf573d906114b582610bce565b916114c36040519384610b91565b82523d6000602084013e565b606090565b9061148d602092828151948592016102a5565b604051906114f482610b17565b6005825264507269636b60d81b6020830152565b9061151282610bce565b61151f6040519182610b91565b8281528092611530601f1991610bce565b0190602036910137565b806000917a184f03e93ff9f4daa797ed6e38ed64bf6a1f0100000000000000008082101561166f575b506d04ee2d6d415b85acef810000000080831015611660575b50662386f26fc1000080831015611651575b506305f5e10080831015611642575b5061271080831015611633575b506064821015611623575b600a80921015611619575b6001908160216115d1828701611508565b95860101905b6115e3575b5050505090565b600019019083906f181899199a1a9b1b9c1cb0b131b232b360811b8282061a835304918215611614579190826115d7565b6115dc565b91600101916115c0565b91906064600291049101916115b5565b600491939204910191386115aa565b6008919392049101913861159d565b6010919392049101913861158e565b6020919392049101913861157c565b604093508104915038611563565b6040519061168a82610b17565b60606020838281520152565b60405190606082018281106001600160401b038211176116cf575b60405281606081526060602082015260406116ca61167d565b910152565b6116d7610b00565b6116b1565b604051906116e982610b17565b600f82526e151a185d08131d58dade4810985b1b608a1b6020830152565b6040519061171482610b17565b60018252600760fb1b6020830152565b6040519061173182610b17565b600b82526a526567756c6172204a6f6560a81b6020830152565b6117c090611757611696565b5061012b60ff61176c607f8460011c166122c3565b921610156118095761177c611707565b6117f1611787611724565b915b83516040516c1e3a39b830b7103334b6361e9160991b60208201529586926117e3926117ce926117ba91602d870183565b906114d4565b61111f60f11b815260020190565b681e17ba39b830b71f0560b91b815260090190565b03601f198101855284610b91565b6117f9610bb2565b9283526020830152604082015290565b60405161181581610b17565b60018152601960fa1b60208201526117f161182e6116dc565b91611789565b6040519061184182610b17565b60018252602360f81b6020830152565b6040519061185e82610b17565b600982526821b7b6b33c90233ab960b91b6020830152565b6040519061188382610b17565b6006825265273790233ab960d11b6020830152565b604051906118a582610b17565b60078252662330433039304160c81b6020830152565b6118c3611696565b5060006118ce61167d565b505060ff8116602081119081611987575b501561195c57506117c06118f1611491565b6118f9611876565b6117f1611904610bc1565b61190c611898565b8152611916611491565b6020820152925b6117e36117ce8551926117ba6040519889956117ba60208801601990781e3a39b830b710323c1e911698171a32b691103334b6361e9160391b81520190565b61196e607f6117c09260011c166122c3565b611976611834565b6117f1611981611851565b9161191d565b60df915010386118df565b6040519061199f82610b17565b6015825274486f77206465657020697320796f7572206c6f766560581b6020830152565b906119cc611696565b506119d6826122c3565b906119df611491565b60005b60ff90818116828716811015611a3957600a8391061615611a07575b600101166119e2565b91611a24611a31600192610a7a60405193849260208401906114d4565b603d60f81b815260010190565b9290506119fe565b5050506117c092919350611a9490611a866117ce8451926117ba6040519788956117ba60208801601990781e3a39b830b710323c1e911698171a32b691103334b6361e9160391b81520190565b03601f198101845283610b91565b611a9c610bb2565b918252611aa7611992565b6020830152604082015290565b60405190611ac182610b17565b60018252601f60f91b6020830152565b60405190611ade82610b17565b60058252644172726f7760d81b6020830152565b60405190611aff82610b17565b6002825261282960f01b6020830152565b60405190611b1d82610b17565b600882526714dc1b185cda195960c21b6020830152565b60405190611b4182610b17565b60018252601160fa1b6020830152565b60405190611b5e82610b17565b6007825266149bdd5b99195960ca1b6020830152565b6117c090611b80611696565b5060ff611b92607f8360011c166122c3565b91166055811015611bf15750611ba6611b34565b6117f1611bb1611b51565b916117e36117ce8551926117ba6040519889956117ba60208801601990781e3a39b830b710323c1e911698171a32b691103334b6361e9160391b81520190565b60aa1115611c0c57611c01611af2565b6117f1611981611b10565b611c14611ab4565b6117f1611981611ad1565b6040519061010082018281106001600160401b03821117611d3d575b60405260cc82526b149dbebe9e17b9ba3cb6329f60a11b60e0837f3c7374796c653e74657874207b616e696d6174696f6e3a206d6f766520302e3260208201527f732063756269632d62657a696572282e34342c2e30352c2e35352c2e3935292060408201527f696e66696e69746520616c7465726e6174653b7472616e73666f726d2d6f726960608201527f67696e3a2063656e7465723b7d406b65796672616d6573206d6f7665207b667260808201527f6f6d207b7472616e73666f726d3a207472616e736c61746558282d323070782960a08201527f3b7d746f207b7472616e73666f726d3a207472616e736c61746558283230707860c08201520152565b611d45610b00565b611c3b565b60405190611d5782610b17565b600d82526c47657474696e67206c75636b7960981b6020830152565b60405190611d8082610b75565b61017482527330ba3294183232b3949dbebe9e17b9ba3cb6329f60611b610180837f3c7374796c653e74657874207b616e696d6174696f6e3a207368616b6520322e60208201527f357320696e66696e6974653b7472616e73666f726d2d6f726967696e3a20313060408201527f25203530253b3b646973706c61793a20696e6c696e652d626c6f636b3b7d406b60608201527f65796672616d6573207368616b65207b3025207b7472616e73666f726d3a207260808201527f6f746174652830646567293b7d323025207b7472616e73666f726d3a20726f7460a08201527f617465282d3235646567293b7d333025207b7472616e73666f726d3a20726f7460c08201527f617465282d3335646567293b7d343025207b7472616e73666f726d3a20726f7460e08201527f617465283130646567293b7d363025207b7472616e73666f726d3a20726f74616101008201527f7465282d3435646567293b7d383025207b7472616e73666f726d3a20726f74616101208201527f7465282d3930646567293b7d393025207b7472616e73666f726d3a20726f74616101408201527f7465282d3435646567293b7d31303025207b7472616e73666f726d3a20726f746101608201520152565b60405190611f5882610b17565b60058252642137b732b960d91b6020830152565b6040519061016082018281106001600160401b03821117612111575b60405261013f82527f73666f726d3a20726f74617465283235646567293b7d7d3c2f7374796c653e00610140837f3c7374796c653e74657874207b616e696d6174696f6e3a20726f746174652d7560208201527f7020317320737465707328352920696e66696e69746520616c7465726e61746560408201527f2c20726f746174652d646f776e20302e357320656173652d6f757420696e666960608201527f6e69746520616c7465726e6174653b7472616e73666f726d2d6f726967696e3a60808201527f2063656e7465723b7d406b65796672616d657320726f746174652d7570207b6660a08201527f726f6d207b7472616e73666f726d3a20726f74617465283235646567293b7d7460c08201527f6f207b7472616e73666f726d3a20726f74617465282d3435646567293b7d7d4060e08201527f6b65796672616d657320726f746174652d646f776e207b66726f6d207b7472616101008201527f6e73666f726d3a20726f74617465282d3435646567293b7d746f207b7472616e6101208201520152565b612119610b00565b611f88565b6040519061212b82610b17565b60058252645368616b6560d81b6020830152565b6040519061214c82610b17565b600d82526c4c6f757379207069637475726560981b6020830152565b6064612172611696565b9106603c8110156121985750612186611491565b815261219061213f565b602082015290565b60508110156121b457506121aa611f6c565b815261219061211e565b605f11156121ce576121c4611d73565b8152612190611f4b565b6121d6611c1f565b8152612190611d4a565b9060405190600092805493600185811c928187169182156122b9575b60209182861084146122a557879861221b878a98999a60209181520190565b94908115612284575060011461223c575b50505050610bbf92500383610b91565b612250919450959195600052602060002090565b946000935b82851061226e57505050610bbf9350013880808061222c565b8654858501529586019588955093810193612255565b9350505050610bbf9491925060ff19168252151560051b013880808061222c565b634e487b7160e01b85526022600452602485fd5b93607f16936121fc565b6122cb61167d565b50600c549060ff82169081156123695760ff16069081101561235357600c60005260011b6121907fdf6966c971051c3d54ec59162606531493a51404a002842f56009d7e5cf4a8c86040519261232084610b17565b61234b817fdf6966c971051c3d54ec59162606531493a51404a002842f56009d7e5cf4a8c7016121e0565b8452016121e0565b634e487b7160e01b600052603260045260246000fd5b634e487b7160e01b600052601260045260246000fd5b6000818154811061239d575b604051636f96cda160e11b8152600490fd5b81526004906020918083526040928383205494600160e01b8616156123c45750505061238b565b93929190935b85156123d857505050505090565b600019018083528185528383205495506123ca565b600054811090816123fc575090565b90506000526004602052600160e01b604060002054161590565b906124208361237f565b6001600160a01b03838116928282168490036125d7576000868152600660205260409020805490926124656001600160a01b03881633908114908414171590565b1590565b61257c575b821695861561256a576124bd9361249b92612560575b506001600160a01b0316600090815260056020526040902090565b80546000190190556001600160a01b0316600090815260056020526040902090565b80546001019055600160e11b804260a01b8517176124e5866000526004602052604060002090565b55811615612516575b507fddf252ad1be2c89b69c2b068fc378daa952ba7f163c4a11628f55a4df523b3ef600080a4565b6001840161252e816000526004602052604060002090565b541561253b575b506124ee565b600054811461253557612558906000526004602052604060002090565b553880612535565b6000905538612480565b604051633a954ecd60e21b8152600490fd5b6125c06124616125b9336125a28b60018060a01b03166000526007602052604060002090565b9060018060a01b0316600052602052604060002090565b5460ff1690565b1561246a57604051632ce44b5f60e11b8152600490fd5b60405162a1148160e81b8152600490fd5b9291906125f6828286612416565b803b612603575b50505050565b61260c93612672565b1561261a57388080806125fd565b6040516368d2bf6b60e11b8152600490fd5b9081602091031261000e57516102fe81610224565b6001600160a01b0391821681529116602082015260408101919091526080606082018190526102fe929101906102c8565b9260209161269b936000604051809681958294630a85bd0160e11b9a8b85523360048601612641565b03926001600160a01b03165af1600091816126eb575b506126dd576126be6114a4565b805190816126d8576040516368d2bf6b60e11b8152600490fd5b602001fd5b6001600160e01b0319161490565b61270d91925060203d8111612714575b6127058183610b91565b81019061262c565b90386126b1565b503d6126fb565b9060009081549281156127de576001600160a01b0381166000908152600560205260409020805468010000000000000001840201905560008481526004602052604090206001600160a01b03909116916001914260a01b83831460e11b1784179055840193817fddf252ad1be2c89b69c2b068fc378daa952ba7f163c4a11628f55a4df523b3ef91808587858180a4015b8581036127cf57505050156127be5755565b604051622e076360e81b8152600490fd5b8083918587858180a4016127ac565b60405163b562e8dd60e01b8152600490fd5b604051906127fd82610b3f565b604082527f6768696a6b6c6d6e6f707172737475767778797a303132333435363738392b2f6040837f4142434445464748494a4b4c4d4e4f505152535455565758595a61626364656660208201520152565b80511561292f5761285e6127f0565b61287a61287561286e845161141d565b6003900490565b61145d565b9161288c61288784611433565b611508565b92835280815182019060208501935b8282106128dd575050506003905106806001146128cc576002146128bd575090565b603d60f81b6000199091015290565b50613d3d60f01b6001199091015290565b9091936004906003809401938451600190603f9082828260121c16880101518553828282600c1c16880101518386015382828260061c168801015160028601531685010151908201530193919061289b565b506102fe61149156fea2646970667358221220cd54caa82b1fb62362a5a0beab3e1dbb81f97edd86d829775e3ddbd1a2a4d4c964736f6c63430008110033","linkReferences":{}},"methodIdentifiers":{"COST_PER_MINT()":"e017cd1d","MAX_PER_WALLET()":"0f2cdd6c","MAX_SUPPLY()":"32cb6b0c","approve(address,uint256)":"095ea7b3","balanceOf(address)":"70a08231","flipSaleState()":"34918dfd","getApproved(uint256)":"081812fc","getSeed(uint256)":"e0d4ea37","isApprovedForAll(address,address)":"e985e9c5","mint(uint32)":"a71bbebe","name()":"06fdde03","owner()":"8da5cb5b","ownerOf(uint256)":"6352211e","renounceOwnership()":"715018a6","safeTransferFrom(address,address,uint256)":"42842e0e","safeTransferFrom(address,address,uint256,bytes)":"b88d4fde","saleIsActive()":"eb8d2444","setApprovalForAll(address,bool)":"a22cb465","setColor(uint8)":"23b9f3bb","supportsInterface(bytes4)":"01ffc9a7","symbol()":"95d89b41","tokenURI(uint256)":"c87b56dd","totalSupply()":"18160ddd","transferFrom(address,address,uint256)":"23b872dd","transferOwnership(address)":"f2fde38b","withdraw()":"3ccfd60b"},"id":22}